{"contracts/RetailChain.sol":{"RetailChain":{"abi":[{"anonymous":false,"inputs":[{"indexed":true,"internalType":"address","name":"user","type":"address"},{"indexed":false,"internalType":"uint256","name":"points","type":"uint256"}],"name":"LoyaltyPointsEarned","type":"event"},{"anonymous":false,"inputs":[{"indexed":true,"internalType":"uint256","name":"id","type":"uint256"},{"indexed":false,"internalType":"uint256","name":"productId","type":"uint256"},{"indexed":false,"internalType":"address","name":"buyer","type":"address"},{"indexed":false,"internalType":"uint256","name":"quantity","type":"uint256"}],"name":"OrderPlaced","type":"event"},{"anonymous":false,"inputs":[{"indexed":true,"internalType":"uint256","name":"id","type":"uint256"},{"indexed":false,"internalType":"string","name":"name","type":"string"},{"indexed":false,"internalType":"uint256","name":"price","type":"uint256"},{"indexed":false,"internalType":"address","name":"seller","type":"address"}],"name":"ProductListed","type":"event"},{"inputs":[{"internalType":"address","name":"_user","type":"address"}],"name":"getLoyaltyPoints","outputs":[{"internalType":"uint256","name":"","type":"uint256"}],"stateMutability":"view","type":"function"},{"inputs":[{"internalType":"uint256","name":"_orderId","type":"uint256"}],"name":"getOrder","outputs":[{"components":[{"internalType":"uint256","name":"id","type":"uint256"},{"internalType":"uint256","name":"productId","type":"uint256"},{"internalType":"address","name":"buyer","type":"address"},{"internalType":"uint256","name":"quantity","type":"uint256"},{"internalType":"uint256","name":"totalPrice","type":"uint256"},{"internalType":"bool","name":"isCompleted","type":"bool"}],"internalType":"struct RetailChain.Order","name":"","type":"tuple"}],"stateMutability":"view","type":"function"},{"inputs":[{"internalType":"uint256","name":"_productId","type":"uint256"}],"name":"getProduct","outputs":[{"components":[{"internalType":"uint256","name":"id","type":"uint256"},{"internalType":"string","name":"name","type":"string"},{"internalType":"uint256","name":"price","type":"uint256"},{"internalType":"uint256","name":"quantity","type":"uint256"},{"internalType":"address","name":"seller","type":"address"},{"internalType":"bool","name":"isActive","type":"bool"}],"internalType":"struct RetailChain.Product","name":"","type":"tuple"}],"stateMutability":"view","type":"function"},{"inputs":[{"internalType":"string","name":"_name","type":"string"},{"internalType":"uint256","name":"_price","type":"uint256"},{"internalType":"uint256","name":"_quantity","type":"uint256"}],"name":"listProduct","outputs":[],"stateMutability":"nonpayable","type":"function"},{"inputs":[{"internalType":"address","name":"","type":"address"}],"name":"loyaltyPoints","outputs":[{"internalType":"uint256","name":"","type":"uint256"}],"stateMutability":"view","type":"function"},{"inputs":[{"internalType":"uint256","name":"","type":"uint256"}],"name":"orders","outputs":[{"internalType":"uint256","name":"id","type":"uint256"},{"internalType":"uint256","name":"productId","type":"uint256"},{"internalType":"address","name":"buyer","type":"address"},{"internalType":"uint256","name":"quantity","type":"uint256"},{"internalType":"uint256","name":"totalPrice","type":"uint256"},{"internalType":"bool","name":"isCompleted","type":"bool"}],"stateMutability":"view","type":"function"},{"inputs":[{"internalType":"uint256","name":"_productId","type":"uint256"},{"internalType":"uint256","name":"_quantity","type":"uint256"}],"name":"placeOrder","outputs":[],"stateMutability":"payable","type":"function"},{"inputs":[{"internalType":"uint256","name":"","type":"uint256"}],"name":"products","outputs":[{"internalType":"uint256","name":"id","type":"uint256"},{"internalType":"string","name":"name","type":"string"},{"internalType":"uint256","name":"price","type":"uint256"},{"internalType":"uint256","name":"quantity","type":"uint256"},{"internalType":"address","name":"seller","type":"address"},{"internalType":"bool","name":"isActive","type":"bool"}],"stateMutability":"view","type":"function"}],"evm":{"bytecode":{"linkReferences":{},"object":"608060405234801561001057600080fd5b506119b8806100206000396000f3fe60806040526004361061007b5760003560e01c8063b9db15b41161004e578063b9db15b414610149578063d04c911514610186578063d09ef241146101c3578063d45e4259146102005761007b565b806352292708146100805780637acc0b20146100a9578063843f61e2146100eb578063a85c38ef14610107575b600080fd5b34801561008c57600080fd5b506100a760048036038101906100a29190610dd7565b61023d565b005b3480156100b557600080fd5b506100d060048036038101906100cb9190610e46565b610418565b6040516100e296959493929190610f5d565b60405180910390f35b61010560048036038101906101009190610fc5565b610509565b005b34801561011357600080fd5b5061012e60048036038101906101299190610e46565b6108ce565b60405161014096959493929190611005565b60405180910390f35b34801561015557600080fd5b50610170600480360381019061016b9190610e46565b610937565b60405161017d9190611166565b60405180910390f35b34801561019257600080fd5b506101ad60048036038101906101a891906111b4565b610a84565b6040516101ba91906111e1565b60405180910390f35b3480156101cf57600080fd5b506101ea60048036038101906101e59190610e46565b610acd565b6040516101f79190611277565b60405180910390f35b34801561020c57600080fd5b50610227600480360381019061022291906111b4565b610b93565b60405161023491906111e1565b60405180910390f35b60008211610280576040517f08c379a0000000000000000000000000000000000000000000000000000000008152600401610277906112de565b60405180910390fd5b600081116102c3576040517f08c379a00000000000000000000000000000000000000000000000000000000081526004016102ba9061134a565b60405180910390fd5b600360008154809291906102d690611399565b91905055506040518060c0016040528060035481526020018481526020018381526020018281526020013373ffffffffffffffffffffffffffffffffffffffff16815260200160011515815250600080600354815260200190815260200160002060008201518160000155602082015181600101908161035691906115ed565b50604082015181600201556060820151816003015560808201518160040160006101000a81548173ffffffffffffffffffffffffffffffffffffffff021916908373ffffffffffffffffffffffffffffffffffffffff16021790555060a08201518160040160146101000a81548160ff0219169083151502179055509050506003547f12f74df6387ef2d51265f7b8c12c28c83ba3a6a78ad217f3846ec9c2b1fad92f84843360405161040b939291906116bf565b60405180910390a2505050565b600060205280600052604060002060009150905080600001549080600101805461044190611410565b80601f016020809104026020016040519081016040528092919081815260200182805461046d90611410565b80156104ba5780601f1061048f576101008083540402835291602001916104ba565b820191906000526020600020905b81548152906001019060200180831161049d57829003601f168201915b5050505050908060020154908060030154908060040160009054906101000a900473ffffffffffffffffffffffffffffffffffffffff16908060040160149054906101000a900460ff16905086565b600080600084815260200190815260200160002090508060040160149054906101000a900460ff16610570576040517f08c379a000000000000000000000000000000000000000000000000000000000815260040161056790611749565b60405180910390fd5b80600301548211156105b7576040517f08c379a00000000000000000000000000000000000000000000000000000000081526004016105ae906117b5565b60405180910390fd5b8181600201546105c791906117d5565b341015610609576040517f08c379a000000000000000000000000000000000000000000000000000000000815260040161060090611863565b60405180910390fd5b6004600081548092919061061c90611399565b91905055506040518060c0016040528060045481526020018481526020013373ffffffffffffffffffffffffffffffffffffffff16815260200183815260200183836002015461066c91906117d5565b815260200160001515815250600160006004548152602001908152602001600020600082015181600001556020820151816001015560408201518160020160006101000a81548173ffffffffffffffffffffffffffffffffffffffff021916908373ffffffffffffffffffffffffffffffffffffffff160217905550606082015181600301556080820151816004015560a08201518160050160006101000a81548160ff021916908315150217905550905050818160030160008282546107339190611883565b9250508190555060008160030154036107645760008160040160146101000a81548160ff0219169083151502179055505b600066038d7ea4c680003461077991906118e6565b905080600260003373ffffffffffffffffffffffffffffffffffffffff1673ffffffffffffffffffffffffffffffffffffffff16815260200190815260200160002060008282546107ca9190611917565b925050819055506004547ff272b72b23241ac4dea5dac19b1157309d925f5daa5577f2795bdaaf2af7d0c58533866040516108079392919061194b565b60405180910390a23373ffffffffffffffffffffffffffffffffffffffff167f175753914ef8c601477ea9da8b478482e8f41ba7c52ad0d1ae19da5e207fa00b8260405161085591906111e1565b60405180910390a28160040160009054906101000a900473ffffffffffffffffffffffffffffffffffffffff1673ffffffffffffffffffffffffffffffffffffffff166108fc349081150290604051600060405180830381858888f193505050501580156108c7573d6000803e3d6000fd5b5050505050565b60016020528060005260406000206000915090508060000154908060010154908060020160009054906101000a900473ffffffffffffffffffffffffffffffffffffffff16908060030154908060040154908060050160009054906101000a900460ff16905086565b61093f610bab565b6000808381526020019081526020016000206040518060c00160405290816000820154815260200160018201805461097690611410565b80601f01602080910402602001604051908101604052809291908181526020018280546109a290611410565b80156109ef5780601f106109c4576101008083540402835291602001916109ef565b820191906000526020600020905b8154815290600101906020018083116109d257829003601f168201915b5050505050815260200160028201548152602001600382015481526020016004820160009054906101000a900473ffffffffffffffffffffffffffffffffffffffff1673ffffffffffffffffffffffffffffffffffffffff1673ffffffffffffffffffffffffffffffffffffffff1681526020016004820160149054906101000a900460ff1615151515815250509050919050565b6000600260008373ffffffffffffffffffffffffffffffffffffffff1673ffffffffffffffffffffffffffffffffffffffff168152602001908152602001600020549050919050565b610ad5610bf9565b600160008381526020019081526020016000206040518060c001604052908160008201548152602001600182015481526020016002820160009054906101000a900473ffffffffffffffffffffffffffffffffffffffff1673ffffffffffffffffffffffffffffffffffffffff1673ffffffffffffffffffffffffffffffffffffffff16815260200160038201548152602001600482015481526020016005820160009054906101000a900460ff1615151515815250509050919050565b60026020528060005260406000206000915090505481565b6040518060c0016040528060008152602001606081526020016000815260200160008152602001600073ffffffffffffffffffffffffffffffffffffffff1681526020016000151581525090565b6040518060c001604052806000815260200160008152602001600073ffffffffffffffffffffffffffffffffffffffff16815260200160008152602001600081526020016000151581525090565b6000604051905090565b600080fd5b600080fd5b600080fd5b600080fd5b6000601f19601f8301169050919050565b7f4e487b7100000000000000000000000000000000000000000000000000000000600052604160045260246000fd5b610cae82610c65565b810181811067ffffffffffffffff82111715610ccd57610ccc610c76565b5b80604052505050565b6000610ce0610c47565b9050610cec8282610ca5565b919050565b600067ffffffffffffffff821115610d0c57610d0b610c76565b5b610d1582610c65565b9050602081019050919050565b82818337600083830152505050565b6000610d44610d3f84610cf1565b610cd6565b905082815260208101848484011115610d6057610d5f610c60565b5b610d6b848285610d22565b509392505050565b600082601f830112610d8857610d87610c5b565b5b8135610d98848260208601610d31565b91505092915050565b6000819050919050565b610db481610da1565b8114610dbf57600080fd5b50565b600081359050610dd181610dab565b92915050565b600080600060608486031215610df057610def610c51565b5b600084013567ffffffffffffffff811115610e0e57610e0d610c56565b5b610e1a86828701610d73565b9350506020610e2b86828701610dc2565b9250506040610e3c86828701610dc2565b9150509250925092565b600060208284031215610e5c57610e5b610c51565b5b6000610e6a84828501610dc2565b91505092915050565b610e7c81610da1565b82525050565b600081519050919050565b600082825260208201905092915050565b60005b83811015610ebc578082015181840152602081019050610ea1565b60008484015250505050565b6000610ed382610e82565b610edd8185610e8d565b9350610eed818560208601610e9e565b610ef681610c65565b840191505092915050565b600073ffffffffffffffffffffffffffffffffffffffff82169050919050565b6000610f2c82610f01565b9050919050565b610f3c81610f21565b82525050565b60008115159050919050565b610f5781610f42565b82525050565b600060c082019050610f726000830189610e73565b8181036020830152610f848188610ec8565b9050610f936040830187610e73565b610fa06060830186610e73565b610fad6080830185610f33565b610fba60a0830184610f4e565b979650505050505050565b60008060408385031215610fdc57610fdb610c51565b5b6000610fea85828601610dc2565b9250506020610ffb85828601610dc2565b9150509250929050565b600060c08201905061101a6000830189610e73565b6110276020830188610e73565b6110346040830187610f33565b6110416060830186610e73565b61104e6080830185610e73565b61105b60a0830184610f4e565b979650505050505050565b61106f81610da1565b82525050565b600082825260208201905092915050565b600061109182610e82565b61109b8185611075565b93506110ab818560208601610e9e565b6110b481610c65565b840191505092915050565b6110c881610f21565b82525050565b6110d781610f42565b82525050565b600060c0830160008301516110f56000860182611066565b506020830151848203602086015261110d8282611086565b91505060408301516111226040860182611066565b5060608301516111356060860182611066565b50608083015161114860808601826110bf565b5060a083015161115b60a08601826110ce565b508091505092915050565b6000602082019050818103600083015261118081846110dd565b905092915050565b61119181610f21565b811461119c57600080fd5b50565b6000813590506111ae81611188565b92915050565b6000602082840312156111ca576111c9610c51565b5b60006111d88482850161119f565b91505092915050565b60006020820190506111f66000830184610e73565b92915050565b60c0820160008201516112126000850182611066565b5060208201516112256020850182611066565b50604082015161123860408501826110bf565b50606082015161124b6060850182611066565b50608082015161125e6080850182611066565b5060a082015161127160a08501826110ce565b50505050565b600060c08201905061128c60008301846111fc565b92915050565b7f5072696365206d7573742062652067726561746572207468616e203000000000600082015250565b60006112c8601c83610e8d565b91506112d382611292565b602082019050919050565b600060208201905081810360008301526112f7816112bb565b9050919050565b7f5175616e74697479206d7573742062652067726561746572207468616e203000600082015250565b6000611334601f83610e8d565b915061133f826112fe565b602082019050919050565b6000602082019050818103600083015261136381611327565b9050919050565b7f4e487b7100000000000000000000000000000000000000000000000000000000600052601160045260246000fd5b60006113a482610da1565b91507fffffffffffffffffffffffffffffffffffffffffffffffffffffffffffffffff82036113d6576113d561136a565b5b600182019050919050565b7f4e487b7100000000000000000000000000000000000000000000000000000000600052602260045260246000fd5b6000600282049050600182168061142857607f821691505b60208210810361143b5761143a6113e1565b5b50919050565b60008190508160005260206000209050919050565b60006020601f8301049050919050565b600082821b905092915050565b6000600883026114a37fffffffffffffffffffffffffffffffffffffffffffffffffffffffffffffffff82611466565b6114ad8683611466565b95508019841693508086168417925050509392505050565b6000819050919050565b60006114ea6114e56114e084610da1565b6114c5565b610da1565b9050919050565b6000819050919050565b611504836114cf565b611518611510826114f1565b848454611473565b825550505050565b600090565b61152d611520565b6115388184846114fb565b505050565b5b8181101561155c57611551600082611525565b60018101905061153e565b5050565b601f8211156115a15761157281611441565b61157b84611456565b8101602085101561158a578190505b61159e61159685611456565b83018261153d565b50505b505050565b600082821c905092915050565b60006115c4600019846008026115a6565b1980831691505092915050565b60006115dd83836115b3565b9150826002028217905092915050565b6115f682610e82565b67ffffffffffffffff81111561160f5761160e610c76565b5b6116198254611410565b611624828285611560565b600060209050601f8311600181146116575760008415611645578287015190505b61164f85826115d1565b8655506116b7565b601f19841661166586611441565b60005b8281101561168d57848901518255600182019150602085019450602081019050611668565b868310156116aa57848901516116a6601f8916826115b3565b8355505b6001600288020188555050505b505050505050565b600060608201905081810360008301526116d98186610ec8565b90506116e86020830185610e73565b6116f56040830184610f33565b949350505050565b7f50726f64756374206973206e6f74206163746976650000000000000000000000600082015250565b6000611733601583610e8d565b915061173e826116fd565b602082019050919050565b6000602082019050818103600083015261176281611726565b9050919050565b7f496e73756666696369656e742070726f64756374207175616e74697479000000600082015250565b600061179f601d83610e8d565b91506117aa82611769565b602082019050919050565b600060208201905081810360008301526117ce81611792565b9050919050565b60006117e082610da1565b91506117eb83610da1565b92508282026117f981610da1565b915082820484148315176118105761180f61136a565b5b5092915050565b7f496e73756666696369656e74207061796d656e74000000000000000000000000600082015250565b600061184d601483610e8d565b915061185882611817565b602082019050919050565b6000602082019050818103600083015261187c81611840565b9050919050565b600061188e82610da1565b915061189983610da1565b92508282039050818111156118b1576118b061136a565b5b92915050565b7f4e487b7100000000000000000000000000000000000000000000000000000000600052601260045260246000fd5b60006118f182610da1565b91506118fc83610da1565b92508261190c5761190b6118b7565b5b828204905092915050565b600061192282610da1565b915061192d83610da1565b92508282019050808211156119455761194461136a565b5b92915050565b60006060820190506119606000830186610e73565b61196d6020830185610f33565b61197a6040830184610e73565b94935050505056fea2646970667358221220697a74f2880fda4f10688e17c52f18ef07f57799c86cf973b073f8c035d43ee164736f6c63430008130033","opcodes":"PUSH1 0x80 PUSH1 0x40 MSTORE CALLVALUE DUP1 ISZERO PUSH2 0x10 JUMPI PUSH1 0x0 DUP1 REVERT JUMPDEST POP PUSH2 0x19B8 DUP1 PUSH2 0x20 PUSH1 0x0 CODECOPY PUSH1 0x0 RETURN INVALID PUSH1 0x80 PUSH1 0x40 MSTORE PUSH1 0x4 CALLDATASIZE LT PUSH2 0x7B JUMPI PUSH1 0x0 CALLDATALOAD PUSH1 0xE0 SHR DUP1 PUSH4 0xB9DB15B4 GT PUSH2 0x4E JUMPI DUP1 PUSH4 0xB9DB15B4 EQ PUSH2 0x149 JUMPI DUP1 PUSH4 0xD04C9115 EQ PUSH2 0x186 JUMPI DUP1 PUSH4 0xD09EF241 EQ PUSH2 0x1C3 JUMPI DUP1 PUSH4 0xD45E4259 EQ PUSH2 0x200 JUMPI PUSH2 0x7B JUMP JUMPDEST DUP1 PUSH4 0x52292708 EQ PUSH2 0x80 JUMPI DUP1 PUSH4 0x7ACC0B20 EQ PUSH2 0xA9 JUMPI DUP1 PUSH4 0x843F61E2 EQ PUSH2 0xEB JUMPI DUP1 PUSH4 0xA85C38EF EQ PUSH2 0x107 JUMPI JUMPDEST PUSH1 0x0 DUP1 REVERT JUMPDEST CALLVALUE DUP1 ISZERO PUSH2 0x8C JUMPI PUSH1 0x0 DUP1 REVERT JUMPDEST POP PUSH2 0xA7 PUSH1 0x4 DUP1 CALLDATASIZE SUB DUP2 ADD SWAP1 PUSH2 0xA2 SWAP2 SWAP1 PUSH2 0xDD7 JUMP JUMPDEST PUSH2 0x23D JUMP JUMPDEST STOP JUMPDEST CALLVALUE DUP1 ISZERO PUSH2 0xB5 JUMPI PUSH1 0x0 DUP1 REVERT JUMPDEST POP PUSH2 0xD0 PUSH1 0x4 DUP1 CALLDATASIZE SUB DUP2 ADD SWAP1 PUSH2 0xCB SWAP2 SWAP1 PUSH2 0xE46 JUMP JUMPDEST PUSH2 0x418 JUMP JUMPDEST PUSH1 0x40 MLOAD PUSH2 0xE2 SWAP7 SWAP6 SWAP5 SWAP4 SWAP3 SWAP2 SWAP1 PUSH2 0xF5D JUMP JUMPDEST PUSH1 0x40 MLOAD DUP1 SWAP2 SUB SWAP1 RETURN JUMPDEST PUSH2 0x105 PUSH1 0x4 DUP1 CALLDATASIZE SUB DUP2 ADD SWAP1 PUSH2 0x100 SWAP2 SWAP1 PUSH2 0xFC5 JUMP JUMPDEST PUSH2 0x509 JUMP JUMPDEST STOP JUMPDEST CALLVALUE DUP1 ISZERO PUSH2 0x113 JUMPI PUSH1 0x0 DUP1 REVERT JUMPDEST POP PUSH2 0x12E PUSH1 0x4 DUP1 CALLDATASIZE SUB DUP2 ADD SWAP1 PUSH2 0x129 SWAP2 SWAP1 PUSH2 0xE46 JUMP JUMPDEST PUSH2 0x8CE JUMP JUMPDEST PUSH1 0x40 MLOAD PUSH2 0x140 SWAP7 SWAP6 SWAP5 SWAP4 SWAP3 SWAP2 SWAP1 PUSH2 0x1005 JUMP JUMPDEST PUSH1 0x40 MLOAD DUP1 SWAP2 SUB SWAP1 RETURN JUMPDEST CALLVALUE DUP1 ISZERO PUSH2 0x155 JUMPI PUSH1 0x0 DUP1 REVERT JUMPDEST POP PUSH2 0x170 PUSH1 0x4 DUP1 CALLDATASIZE SUB DUP2 ADD SWAP1 PUSH2 0x16B SWAP2 SWAP1 PUSH2 0xE46 JUMP JUMPDEST PUSH2 0x937 JUMP JUMPDEST PUSH1 0x40 MLOAD PUSH2 0x17D SWAP2 SWAP1 PUSH2 0x1166 JUMP JUMPDEST PUSH1 0x40 MLOAD DUP1 SWAP2 SUB SWAP1 RETURN JUMPDEST CALLVALUE DUP1 ISZERO PUSH2 0x192 JUMPI PUSH1 0x0 DUP1 REVERT JUMPDEST POP PUSH2 0x1AD PUSH1 0x4 DUP1 CALLDATASIZE SUB DUP2 ADD SWAP1 PUSH2 0x1A8 SWAP2 SWAP1 PUSH2 0x11B4 JUMP JUMPDEST PUSH2 0xA84 JUMP JUMPDEST PUSH1 0x40 MLOAD PUSH2 0x1BA SWAP2 SWAP1 PUSH2 0x11E1 JUMP JUMPDEST PUSH1 0x40 MLOAD DUP1 SWAP2 SUB SWAP1 RETURN JUMPDEST CALLVALUE DUP1 ISZERO PUSH2 0x1CF JUMPI PUSH1 0x0 DUP1 REVERT JUMPDEST POP PUSH2 0x1EA PUSH1 0x4 DUP1 CALLDATASIZE SUB DUP2 ADD SWAP1 PUSH2 0x1E5 SWAP2 SWAP1 PUSH2 0xE46 JUMP JUMPDEST PUSH2 0xACD JUMP JUMPDEST PUSH1 0x40 MLOAD PUSH2 0x1F7 SWAP2 SWAP1 PUSH2 0x1277 JUMP JUMPDEST PUSH1 0x40 MLOAD DUP1 SWAP2 SUB SWAP1 RETURN JUMPDEST CALLVALUE DUP1 ISZERO PUSH2 0x20C JUMPI PUSH1 0x0 DUP1 REVERT JUMPDEST POP PUSH2 0x227 PUSH1 0x4 DUP1 CALLDATASIZE SUB DUP2 ADD SWAP1 PUSH2 0x222 SWAP2 SWAP1 PUSH2 0x11B4 JUMP JUMPDEST PUSH2 0xB93 JUMP JUMPDEST PUSH1 0x40 MLOAD PUSH2 0x234 SWAP2 SWAP1 PUSH2 0x11E1 JUMP JUMPDEST PUSH1 0x40 MLOAD DUP1 SWAP2 SUB SWAP1 RETURN JUMPDEST PUSH1 0x0 DUP3 GT PUSH2 0x280 JUMPI PUSH1 0x40 MLOAD PUSH32 0x8C379A000000000000000000000000000000000000000000000000000000000 DUP2 MSTORE PUSH1 0x4 ADD PUSH2 0x277 SWAP1 PUSH2 0x12DE JUMP JUMPDEST PUSH1 0x40 MLOAD DUP1 SWAP2 SUB SWAP1 REVERT JUMPDEST PUSH1 0x0 DUP2 GT PUSH2 0x2C3 JUMPI PUSH1 0x40 MLOAD PUSH32 0x8C379A000000000000000000000000000000000000000000000000000000000 DUP2 MSTORE PUSH1 0x4 ADD PUSH2 0x2BA SWAP1 PUSH2 0x134A JUMP JUMPDEST PUSH1 0x40 MLOAD DUP1 SWAP2 SUB SWAP1 REVERT JUMPDEST PUSH1 0x3 PUSH1 0x0 DUP2 SLOAD DUP1 SWAP3 SWAP2 SWAP1 PUSH2 0x2D6 SWAP1 PUSH2 0x1399 JUMP JUMPDEST SWAP2 SWAP1 POP SSTORE POP PUSH1 0x40 MLOAD DUP1 PUSH1 0xC0 ADD PUSH1 0x40 MSTORE DUP1 PUSH1 0x3 SLOAD DUP2 MSTORE PUSH1 0x20 ADD DUP5 DUP2 MSTORE PUSH1 0x20 ADD DUP4 DUP2 MSTORE PUSH1 0x20 ADD DUP3 DUP2 MSTORE PUSH1 0x20 ADD CALLER PUSH20 0xFFFFFFFFFFFFFFFFFFFFFFFFFFFFFFFFFFFFFFFF AND DUP2 MSTORE PUSH1 0x20 ADD PUSH1 0x1 ISZERO ISZERO DUP2 MSTORE POP PUSH1 0x0 DUP1 PUSH1 0x3 SLOAD DUP2 MSTORE PUSH1 0x20 ADD SWAP1 DUP2 MSTORE PUSH1 0x20 ADD PUSH1 0x0 KECCAK256 PUSH1 0x0 DUP3 ADD MLOAD DUP2 PUSH1 0x0 ADD SSTORE PUSH1 0x20 DUP3 ADD MLOAD DUP2 PUSH1 0x1 ADD SWAP1 DUP2 PUSH2 0x356 SWAP2 SWAP1 PUSH2 0x15ED JUMP JUMPDEST POP PUSH1 0x40 DUP3 ADD MLOAD DUP2 PUSH1 0x2 ADD SSTORE PUSH1 0x60 DUP3 ADD MLOAD DUP2 PUSH1 0x3 ADD SSTORE PUSH1 0x80 DUP3 ADD MLOAD DUP2 PUSH1 0x4 ADD PUSH1 0x0 PUSH2 0x100 EXP DUP2 SLOAD DUP2 PUSH20 0xFFFFFFFFFFFFFFFFFFFFFFFFFFFFFFFFFFFFFFFF MUL NOT AND SWAP1 DUP4 PUSH20 0xFFFFFFFFFFFFFFFFFFFFFFFFFFFFFFFFFFFFFFFF AND MUL OR SWAP1 SSTORE POP PUSH1 0xA0 DUP3 ADD MLOAD DUP2 PUSH1 0x4 ADD PUSH1 0x14 PUSH2 0x100 EXP DUP2 SLOAD DUP2 PUSH1 0xFF MUL NOT AND SWAP1 DUP4 ISZERO ISZERO MUL OR SWAP1 SSTORE POP SWAP1 POP POP PUSH1 0x3 SLOAD PUSH32 0x12F74DF6387EF2D51265F7B8C12C28C83BA3A6A78AD217F3846EC9C2B1FAD92F DUP5 DUP5 CALLER PUSH1 0x40 MLOAD PUSH2 0x40B SWAP4 SWAP3 SWAP2 SWAP1 PUSH2 0x16BF JUMP JUMPDEST PUSH1 0x40 MLOAD DUP1 SWAP2 SUB SWAP1 LOG2 POP POP POP JUMP JUMPDEST PUSH1 0x0 PUSH1 0x20 MSTORE DUP1 PUSH1 0x0 MSTORE PUSH1 0x40 PUSH1 0x0 KECCAK256 PUSH1 0x0 SWAP2 POP SWAP1 POP DUP1 PUSH1 0x0 ADD SLOAD SWAP1 DUP1 PUSH1 0x1 ADD DUP1 SLOAD PUSH2 0x441 SWAP1 PUSH2 0x1410 JUMP JUMPDEST DUP1 PUSH1 0x1F ADD PUSH1 0x20 DUP1 SWAP2 DIV MUL PUSH1 0x20 ADD PUSH1 0x40 MLOAD SWAP1 DUP2 ADD PUSH1 0x40 MSTORE DUP1 SWAP3 SWAP2 SWAP1 DUP2 DUP2 MSTORE PUSH1 0x20 ADD DUP3 DUP1 SLOAD PUSH2 0x46D SWAP1 PUSH2 0x1410 JUMP JUMPDEST DUP1 ISZERO PUSH2 0x4BA JUMPI DUP1 PUSH1 0x1F LT PUSH2 0x48F JUMPI PUSH2 0x100 DUP1 DUP4 SLOAD DIV MUL DUP4 MSTORE SWAP2 PUSH1 0x20 ADD SWAP2 PUSH2 0x4BA JUMP JUMPDEST DUP3 ADD SWAP2 SWAP1 PUSH1 0x0 MSTORE PUSH1 0x20 PUSH1 0x0 KECCAK256 SWAP1 JUMPDEST DUP2 SLOAD DUP2 MSTORE SWAP1 PUSH1 0x1 ADD SWAP1 PUSH1 0x20 ADD DUP1 DUP4 GT PUSH2 0x49D JUMPI DUP3 SWAP1 SUB PUSH1 0x1F AND DUP3 ADD SWAP2 JUMPDEST POP POP POP POP POP SWAP1 DUP1 PUSH1 0x2 ADD SLOAD SWAP1 DUP1 PUSH1 0x3 ADD SLOAD SWAP1 DUP1 PUSH1 0x4 ADD PUSH1 0x0 SWAP1 SLOAD SWAP1 PUSH2 0x100 EXP SWAP1 DIV PUSH20 0xFFFFFFFFFFFFFFFFFFFFFFFFFFFFFFFFFFFFFFFF AND SWAP1 DUP1 PUSH1 0x4 ADD PUSH1 0x14 SWAP1 SLOAD SWAP1 PUSH2 0x100 EXP SWAP1 DIV PUSH1 0xFF AND SWAP1 POP DUP7 JUMP JUMPDEST PUSH1 0x0 DUP1 PUSH1 0x0 DUP5 DUP2 MSTORE PUSH1 0x20 ADD SWAP1 DUP2 MSTORE PUSH1 0x20 ADD PUSH1 0x0 KECCAK256 SWAP1 POP DUP1 PUSH1 0x4 ADD PUSH1 0x14 SWAP1 SLOAD SWAP1 PUSH2 0x100 EXP SWAP1 DIV PUSH1 0xFF AND PUSH2 0x570 JUMPI PUSH1 0x40 MLOAD PUSH32 0x8C379A000000000000000000000000000000000000000000000000000000000 DUP2 MSTORE PUSH1 0x4 ADD PUSH2 0x567 SWAP1 PUSH2 0x1749 JUMP JUMPDEST PUSH1 0x40 MLOAD DUP1 SWAP2 SUB SWAP1 REVERT JUMPDEST DUP1 PUSH1 0x3 ADD SLOAD DUP3 GT ISZERO PUSH2 0x5B7 JUMPI PUSH1 0x40 MLOAD PUSH32 0x8C379A000000000000000000000000000000000000000000000000000000000 DUP2 MSTORE PUSH1 0x4 ADD PUSH2 0x5AE SWAP1 PUSH2 0x17B5 JUMP JUMPDEST PUSH1 0x40 MLOAD DUP1 SWAP2 SUB SWAP1 REVERT JUMPDEST DUP2 DUP2 PUSH1 0x2 ADD SLOAD PUSH2 0x5C7 SWAP2 SWAP1 PUSH2 0x17D5 JUMP JUMPDEST CALLVALUE LT ISZERO PUSH2 0x609 JUMPI PUSH1 0x40 MLOAD PUSH32 0x8C379A000000000000000000000000000000000000000000000000000000000 DUP2 MSTORE PUSH1 0x4 ADD PUSH2 0x600 SWAP1 PUSH2 0x1863 JUMP JUMPDEST PUSH1 0x40 MLOAD DUP1 SWAP2 SUB SWAP1 REVERT JUMPDEST PUSH1 0x4 PUSH1 0x0 DUP2 SLOAD DUP1 SWAP3 SWAP2 SWAP1 PUSH2 0x61C SWAP1 PUSH2 0x1399 JUMP JUMPDEST SWAP2 SWAP1 POP SSTORE POP PUSH1 0x40 MLOAD DUP1 PUSH1 0xC0 ADD PUSH1 0x40 MSTORE DUP1 PUSH1 0x4 SLOAD DUP2 MSTORE PUSH1 0x20 ADD DUP5 DUP2 MSTORE PUSH1 0x20 ADD CALLER PUSH20 0xFFFFFFFFFFFFFFFFFFFFFFFFFFFFFFFFFFFFFFFF AND DUP2 MSTORE PUSH1 0x20 ADD DUP4 DUP2 MSTORE PUSH1 0x20 ADD DUP4 DUP4 PUSH1 0x2 ADD SLOAD PUSH2 0x66C SWAP2 SWAP1 PUSH2 0x17D5 JUMP JUMPDEST DUP2 MSTORE PUSH1 0x20 ADD PUSH1 0x0 ISZERO ISZERO DUP2 MSTORE POP PUSH1 0x1 PUSH1 0x0 PUSH1 0x4 SLOAD DUP2 MSTORE PUSH1 0x20 ADD SWAP1 DUP2 MSTORE PUSH1 0x20 ADD PUSH1 0x0 KECCAK256 PUSH1 0x0 DUP3 ADD MLOAD DUP2 PUSH1 0x0 ADD SSTORE PUSH1 0x20 DUP3 ADD MLOAD DUP2 PUSH1 0x1 ADD SSTORE PUSH1 0x40 DUP3 ADD MLOAD DUP2 PUSH1 0x2 ADD PUSH1 0x0 PUSH2 0x100 EXP DUP2 SLOAD DUP2 PUSH20 0xFFFFFFFFFFFFFFFFFFFFFFFFFFFFFFFFFFFFFFFF MUL NOT AND SWAP1 DUP4 PUSH20 0xFFFFFFFFFFFFFFFFFFFFFFFFFFFFFFFFFFFFFFFF AND MUL OR SWAP1 SSTORE POP PUSH1 0x60 DUP3 ADD MLOAD DUP2 PUSH1 0x3 ADD SSTORE PUSH1 0x80 DUP3 ADD MLOAD DUP2 PUSH1 0x4 ADD SSTORE PUSH1 0xA0 DUP3 ADD MLOAD DUP2 PUSH1 0x5 ADD PUSH1 0x0 PUSH2 0x100 EXP DUP2 SLOAD DUP2 PUSH1 0xFF MUL NOT AND SWAP1 DUP4 ISZERO ISZERO MUL OR SWAP1 SSTORE POP SWAP1 POP POP DUP2 DUP2 PUSH1 0x3 ADD PUSH1 0x0 DUP3 DUP3 SLOAD PUSH2 0x733 SWAP2 SWAP1 PUSH2 0x1883 JUMP JUMPDEST SWAP3 POP POP DUP2 SWAP1 SSTORE POP PUSH1 0x0 DUP2 PUSH1 0x3 ADD SLOAD SUB PUSH2 0x764 JUMPI PUSH1 0x0 DUP2 PUSH1 0x4 ADD PUSH1 0x14 PUSH2 0x100 EXP DUP2 SLOAD DUP2 PUSH1 0xFF MUL NOT AND SWAP1 DUP4 ISZERO ISZERO MUL OR SWAP1 SSTORE POP JUMPDEST PUSH1 0x0 PUSH7 0x38D7EA4C68000 CALLVALUE PUSH2 0x779 SWAP2 SWAP1 PUSH2 0x18E6 JUMP JUMPDEST SWAP1 POP DUP1 PUSH1 0x2 PUSH1 0x0 CALLER PUSH20 0xFFFFFFFFFFFFFFFFFFFFFFFFFFFFFFFFFFFFFFFF AND PUSH20 0xFFFFFFFFFFFFFFFFFFFFFFFFFFFFFFFFFFFFFFFF AND DUP2 MSTORE PUSH1 0x20 ADD SWAP1 DUP2 MSTORE PUSH1 0x20 ADD PUSH1 0x0 KECCAK256 PUSH1 0x0 DUP3 DUP3 SLOAD PUSH2 0x7CA SWAP2 SWAP1 PUSH2 0x1917 JUMP JUMPDEST SWAP3 POP POP DUP2 SWAP1 SSTORE POP PUSH1 0x4 SLOAD PUSH32 0xF272B72B23241AC4DEA5DAC19B1157309D925F5DAA5577F2795BDAAF2AF7D0C5 DUP6 CALLER DUP7 PUSH1 0x40 MLOAD PUSH2 0x807 SWAP4 SWAP3 SWAP2 SWAP1 PUSH2 0x194B JUMP JUMPDEST PUSH1 0x40 MLOAD DUP1 SWAP2 SUB SWAP1 LOG2 CALLER PUSH20 0xFFFFFFFFFFFFFFFFFFFFFFFFFFFFFFFFFFFFFFFF AND PUSH32 0x175753914EF8C601477EA9DA8B478482E8F41BA7C52AD0D1AE19DA5E207FA00B DUP3 PUSH1 0x40 MLOAD PUSH2 0x855 SWAP2 SWAP1 PUSH2 0x11E1 JUMP JUMPDEST PUSH1 0x40 MLOAD DUP1 SWAP2 SUB SWAP1 LOG2 DUP2 PUSH1 0x4 ADD PUSH1 0x0 SWAP1 SLOAD SWAP1 PUSH2 0x100 EXP SWAP1 DIV PUSH20 0xFFFFFFFFFFFFFFFFFFFFFFFFFFFFFFFFFFFFFFFF AND PUSH20 0xFFFFFFFFFFFFFFFFFFFFFFFFFFFFFFFFFFFFFFFF AND PUSH2 0x8FC CALLVALUE SWAP1 DUP2 ISZERO MUL SWAP1 PUSH1 0x40 MLOAD PUSH1 0x0 PUSH1 0x40 MLOAD DUP1 DUP4 SUB DUP2 DUP6 DUP9 DUP9 CALL SWAP4 POP POP POP POP ISZERO DUP1 ISZERO PUSH2 0x8C7 JUMPI RETURNDATASIZE PUSH1 0x0 DUP1 RETURNDATACOPY RETURNDATASIZE PUSH1 0x0 REVERT JUMPDEST POP POP POP POP POP JUMP JUMPDEST PUSH1 0x1 PUSH1 0x20 MSTORE DUP1 PUSH1 0x0 MSTORE PUSH1 0x40 PUSH1 0x0 KECCAK256 PUSH1 0x0 SWAP2 POP SWAP1 POP DUP1 PUSH1 0x0 ADD SLOAD SWAP1 DUP1 PUSH1 0x1 ADD SLOAD SWAP1 DUP1 PUSH1 0x2 ADD PUSH1 0x0 SWAP1 SLOAD SWAP1 PUSH2 0x100 EXP SWAP1 DIV PUSH20 0xFFFFFFFFFFFFFFFFFFFFFFFFFFFFFFFFFFFFFFFF AND SWAP1 DUP1 PUSH1 0x3 ADD SLOAD SWAP1 DUP1 PUSH1 0x4 ADD SLOAD SWAP1 DUP1 PUSH1 0x5 ADD PUSH1 0x0 SWAP1 SLOAD SWAP1 PUSH2 0x100 EXP SWAP1 DIV PUSH1 0xFF AND SWAP1 POP DUP7 JUMP JUMPDEST PUSH2 0x93F PUSH2 0xBAB JUMP JUMPDEST PUSH1 0x0 DUP1 DUP4 DUP2 MSTORE PUSH1 0x20 ADD SWAP1 DUP2 MSTORE PUSH1 0x20 ADD PUSH1 0x0 KECCAK256 PUSH1 0x40 MLOAD DUP1 PUSH1 0xC0 ADD PUSH1 0x40 MSTORE SWAP1 DUP2 PUSH1 0x0 DUP3 ADD SLOAD DUP2 MSTORE PUSH1 0x20 ADD PUSH1 0x1 DUP3 ADD DUP1 SLOAD PUSH2 0x976 SWAP1 PUSH2 0x1410 JUMP JUMPDEST DUP1 PUSH1 0x1F ADD PUSH1 0x20 DUP1 SWAP2 DIV MUL PUSH1 0x20 ADD PUSH1 0x40 MLOAD SWAP1 DUP2 ADD PUSH1 0x40 MSTORE DUP1 SWAP3 SWAP2 SWAP1 DUP2 DUP2 MSTORE PUSH1 0x20 ADD DUP3 DUP1 SLOAD PUSH2 0x9A2 SWAP1 PUSH2 0x1410 JUMP JUMPDEST DUP1 ISZERO PUSH2 0x9EF JUMPI DUP1 PUSH1 0x1F LT PUSH2 0x9C4 JUMPI PUSH2 0x100 DUP1 DUP4 SLOAD DIV MUL DUP4 MSTORE SWAP2 PUSH1 0x20 ADD SWAP2 PUSH2 0x9EF JUMP JUMPDEST DUP3 ADD SWAP2 SWAP1 PUSH1 0x0 MSTORE PUSH1 0x20 PUSH1 0x0 KECCAK256 SWAP1 JUMPDEST DUP2 SLOAD DUP2 MSTORE SWAP1 PUSH1 0x1 ADD SWAP1 PUSH1 0x20 ADD DUP1 DUP4 GT PUSH2 0x9D2 JUMPI DUP3 SWAP1 SUB PUSH1 0x1F AND DUP3 ADD SWAP2 JUMPDEST POP POP POP POP POP DUP2 MSTORE PUSH1 0x20 ADD PUSH1 0x2 DUP3 ADD SLOAD DUP2 MSTORE PUSH1 0x20 ADD PUSH1 0x3 DUP3 ADD SLOAD DUP2 MSTORE PUSH1 0x20 ADD PUSH1 0x4 DUP3 ADD PUSH1 0x0 SWAP1 SLOAD SWAP1 PUSH2 0x100 EXP SWAP1 DIV PUSH20 0xFFFFFFFFFFFFFFFFFFFFFFFFFFFFFFFFFFFFFFFF AND PUSH20 0xFFFFFFFFFFFFFFFFFFFFFFFFFFFFFFFFFFFFFFFF AND PUSH20 0xFFFFFFFFFFFFFFFFFFFFFFFFFFFFFFFFFFFFFFFF AND DUP2 MSTORE PUSH1 0x20 ADD PUSH1 0x4 DUP3 ADD PUSH1 0x14 SWAP1 SLOAD SWAP1 PUSH2 0x100 EXP SWAP1 DIV PUSH1 0xFF AND ISZERO ISZERO ISZERO ISZERO DUP2 MSTORE POP POP SWAP1 POP SWAP2 SWAP1 POP JUMP JUMPDEST PUSH1 0x0 PUSH1 0x2 PUSH1 0x0 DUP4 PUSH20 0xFFFFFFFFFFFFFFFFFFFFFFFFFFFFFFFFFFFFFFFF AND PUSH20 0xFFFFFFFFFFFFFFFFFFFFFFFFFFFFFFFFFFFFFFFF AND DUP2 MSTORE PUSH1 0x20 ADD SWAP1 DUP2 MSTORE PUSH1 0x20 ADD PUSH1 0x0 KECCAK256 SLOAD SWAP1 POP SWAP2 SWAP1 POP JUMP JUMPDEST PUSH2 0xAD5 PUSH2 0xBF9 JUMP JUMPDEST PUSH1 0x1 PUSH1 0x0 DUP4 DUP2 MSTORE PUSH1 0x20 ADD SWAP1 DUP2 MSTORE PUSH1 0x20 ADD PUSH1 0x0 KECCAK256 PUSH1 0x40 MLOAD DUP1 PUSH1 0xC0 ADD PUSH1 0x40 MSTORE SWAP1 DUP2 PUSH1 0x0 DUP3 ADD SLOAD DUP2 MSTORE PUSH1 0x20 ADD PUSH1 0x1 DUP3 ADD SLOAD DUP2 MSTORE PUSH1 0x20 ADD PUSH1 0x2 DUP3 ADD PUSH1 0x0 SWAP1 SLOAD SWAP1 PUSH2 0x100 EXP SWAP1 DIV PUSH20 0xFFFFFFFFFFFFFFFFFFFFFFFFFFFFFFFFFFFFFFFF AND PUSH20 0xFFFFFFFFFFFFFFFFFFFFFFFFFFFFFFFFFFFFFFFF AND PUSH20 0xFFFFFFFFFFFFFFFFFFFFFFFFFFFFFFFFFFFFFFFF AND DUP2 MSTORE PUSH1 0x20 ADD PUSH1 0x3 DUP3 ADD SLOAD DUP2 MSTORE PUSH1 0x20 ADD PUSH1 0x4 DUP3 ADD SLOAD DUP2 MSTORE PUSH1 0x20 ADD PUSH1 0x5 DUP3 ADD PUSH1 0x0 SWAP1 SLOAD SWAP1 PUSH2 0x100 EXP SWAP1 DIV PUSH1 0xFF AND ISZERO ISZERO ISZERO ISZERO DUP2 MSTORE POP POP SWAP1 POP SWAP2 SWAP1 POP JUMP JUMPDEST PUSH1 0x2 PUSH1 0x20 MSTORE DUP1 PUSH1 0x0 MSTORE PUSH1 0x40 PUSH1 0x0 KECCAK256 PUSH1 0x0 SWAP2 POP SWAP1 POP SLOAD DUP2 JUMP JUMPDEST PUSH1 0x40 MLOAD DUP1 PUSH1 0xC0 ADD PUSH1 0x40 MSTORE DUP1 PUSH1 0x0 DUP2 MSTORE PUSH1 0x20 ADD PUSH1 0x60 DUP2 MSTORE PUSH1 0x20 ADD PUSH1 0x0 DUP2 MSTORE PUSH1 0x20 ADD PUSH1 0x0 DUP2 MSTORE PUSH1 0x20 ADD PUSH1 0x0 PUSH20 0xFFFFFFFFFFFFFFFFFFFFFFFFFFFFFFFFFFFFFFFF AND DUP2 MSTORE PUSH1 0x20 ADD PUSH1 0x0 ISZERO ISZERO DUP2 MSTORE POP SWAP1 JUMP JUMPDEST PUSH1 0x40 MLOAD DUP1 PUSH1 0xC0 ADD PUSH1 0x40 MSTORE DUP1 PUSH1 0x0 DUP2 MSTORE PUSH1 0x20 ADD PUSH1 0x0 DUP2 MSTORE PUSH1 0x20 ADD PUSH1 0x0 PUSH20 0xFFFFFFFFFFFFFFFFFFFFFFFFFFFFFFFFFFFFFFFF AND DUP2 MSTORE PUSH1 0x20 ADD PUSH1 0x0 DUP2 MSTORE PUSH1 0x20 ADD PUSH1 0x0 DUP2 MSTORE PUSH1 0x20 ADD PUSH1 0x0 ISZERO ISZERO DUP2 MSTORE POP SWAP1 JUMP JUMPDEST PUSH1 0x0 PUSH1 0x40 MLOAD SWAP1 POP SWAP1 JUMP JUMPDEST PUSH1 0x0 DUP1 REVERT JUMPDEST PUSH1 0x0 DUP1 REVERT JUMPDEST PUSH1 0x0 DUP1 REVERT JUMPDEST PUSH1 0x0 DUP1 REVERT JUMPDEST PUSH1 0x0 PUSH1 0x1F NOT PUSH1 0x1F DUP4 ADD AND SWAP1 POP SWAP2 SWAP1 POP JUMP JUMPDEST PUSH32 0x4E487B7100000000000000000000000000000000000000000000000000000000 PUSH1 0x0 MSTORE PUSH1 0x41 PUSH1 0x4 MSTORE PUSH1 0x24 PUSH1 0x0 REVERT JUMPDEST PUSH2 0xCAE DUP3 PUSH2 0xC65 JUMP JUMPDEST DUP2 ADD DUP2 DUP2 LT PUSH8 0xFFFFFFFFFFFFFFFF DUP3 GT OR ISZERO PUSH2 0xCCD JUMPI PUSH2 0xCCC PUSH2 0xC76 JUMP JUMPDEST JUMPDEST DUP1 PUSH1 0x40 MSTORE POP POP POP JUMP JUMPDEST PUSH1 0x0 PUSH2 0xCE0 PUSH2 0xC47 JUMP JUMPDEST SWAP1 POP PUSH2 0xCEC DUP3 DUP3 PUSH2 0xCA5 JUMP JUMPDEST SWAP2 SWAP1 POP JUMP JUMPDEST PUSH1 0x0 PUSH8 0xFFFFFFFFFFFFFFFF DUP3 GT ISZERO PUSH2 0xD0C JUMPI PUSH2 0xD0B PUSH2 0xC76 JUMP JUMPDEST JUMPDEST PUSH2 0xD15 DUP3 PUSH2 0xC65 JUMP JUMPDEST SWAP1 POP PUSH1 0x20 DUP2 ADD SWAP1 POP SWAP2 SWAP1 POP JUMP JUMPDEST DUP3 DUP2 DUP4 CALLDATACOPY PUSH1 0x0 DUP4 DUP4 ADD MSTORE POP POP POP JUMP JUMPDEST PUSH1 0x0 PUSH2 0xD44 PUSH2 0xD3F DUP5 PUSH2 0xCF1 JUMP JUMPDEST PUSH2 0xCD6 JUMP JUMPDEST SWAP1 POP DUP3 DUP2 MSTORE PUSH1 0x20 DUP2 ADD DUP5 DUP5 DUP5 ADD GT ISZERO PUSH2 0xD60 JUMPI PUSH2 0xD5F PUSH2 0xC60 JUMP JUMPDEST JUMPDEST PUSH2 0xD6B DUP5 DUP3 DUP6 PUSH2 0xD22 JUMP JUMPDEST POP SWAP4 SWAP3 POP POP POP JUMP JUMPDEST PUSH1 0x0 DUP3 PUSH1 0x1F DUP4 ADD SLT PUSH2 0xD88 JUMPI PUSH2 0xD87 PUSH2 0xC5B JUMP JUMPDEST JUMPDEST DUP2 CALLDATALOAD PUSH2 0xD98 DUP5 DUP3 PUSH1 0x20 DUP7 ADD PUSH2 0xD31 JUMP JUMPDEST SWAP2 POP POP SWAP3 SWAP2 POP POP JUMP JUMPDEST PUSH1 0x0 DUP2 SWAP1 POP SWAP2 SWAP1 POP JUMP JUMPDEST PUSH2 0xDB4 DUP2 PUSH2 0xDA1 JUMP JUMPDEST DUP2 EQ PUSH2 0xDBF JUMPI PUSH1 0x0 DUP1 REVERT JUMPDEST POP JUMP JUMPDEST PUSH1 0x0 DUP2 CALLDATALOAD SWAP1 POP PUSH2 0xDD1 DUP2 PUSH2 0xDAB JUMP JUMPDEST SWAP3 SWAP2 POP POP JUMP JUMPDEST PUSH1 0x0 DUP1 PUSH1 0x0 PUSH1 0x60 DUP5 DUP7 SUB SLT ISZERO PUSH2 0xDF0 JUMPI PUSH2 0xDEF PUSH2 0xC51 JUMP JUMPDEST JUMPDEST PUSH1 0x0 DUP5 ADD CALLDATALOAD PUSH8 0xFFFFFFFFFFFFFFFF DUP2 GT ISZERO PUSH2 0xE0E JUMPI PUSH2 0xE0D PUSH2 0xC56 JUMP JUMPDEST JUMPDEST PUSH2 0xE1A DUP7 DUP3 DUP8 ADD PUSH2 0xD73 JUMP JUMPDEST SWAP4 POP POP PUSH1 0x20 PUSH2 0xE2B DUP7 DUP3 DUP8 ADD PUSH2 0xDC2 JUMP JUMPDEST SWAP3 POP POP PUSH1 0x40 PUSH2 0xE3C DUP7 DUP3 DUP8 ADD PUSH2 0xDC2 JUMP JUMPDEST SWAP2 POP POP SWAP3 POP SWAP3 POP SWAP3 JUMP JUMPDEST PUSH1 0x0 PUSH1 0x20 DUP3 DUP5 SUB SLT ISZERO PUSH2 0xE5C JUMPI PUSH2 0xE5B PUSH2 0xC51 JUMP JUMPDEST JUMPDEST PUSH1 0x0 PUSH2 0xE6A DUP5 DUP3 DUP6 ADD PUSH2 0xDC2 JUMP JUMPDEST SWAP2 POP POP SWAP3 SWAP2 POP POP JUMP JUMPDEST PUSH2 0xE7C DUP2 PUSH2 0xDA1 JUMP JUMPDEST DUP3 MSTORE POP POP JUMP JUMPDEST PUSH1 0x0 DUP2 MLOAD SWAP1 POP SWAP2 SWAP1 POP JUMP JUMPDEST PUSH1 0x0 DUP3 DUP3 MSTORE PUSH1 0x20 DUP3 ADD SWAP1 POP SWAP3 SWAP2 POP POP JUMP JUMPDEST PUSH1 0x0 JUMPDEST DUP4 DUP2 LT ISZERO PUSH2 0xEBC JUMPI DUP1 DUP3 ADD MLOAD DUP2 DUP5 ADD MSTORE PUSH1 0x20 DUP2 ADD SWAP1 POP PUSH2 0xEA1 JUMP JUMPDEST PUSH1 0x0 DUP5 DUP5 ADD MSTORE POP POP POP POP JUMP JUMPDEST PUSH1 0x0 PUSH2 0xED3 DUP3 PUSH2 0xE82 JUMP JUMPDEST PUSH2 0xEDD DUP2 DUP6 PUSH2 0xE8D JUMP JUMPDEST SWAP4 POP PUSH2 0xEED DUP2 DUP6 PUSH1 0x20 DUP7 ADD PUSH2 0xE9E JUMP JUMPDEST PUSH2 0xEF6 DUP2 PUSH2 0xC65 JUMP JUMPDEST DUP5 ADD SWAP2 POP POP SWAP3 SWAP2 POP POP JUMP JUMPDEST PUSH1 0x0 PUSH20 0xFFFFFFFFFFFFFFFFFFFFFFFFFFFFFFFFFFFFFFFF DUP3 AND SWAP1 POP SWAP2 SWAP1 POP JUMP JUMPDEST PUSH1 0x0 PUSH2 0xF2C DUP3 PUSH2 0xF01 JUMP JUMPDEST SWAP1 POP SWAP2 SWAP1 POP JUMP JUMPDEST PUSH2 0xF3C DUP2 PUSH2 0xF21 JUMP JUMPDEST DUP3 MSTORE POP POP JUMP JUMPDEST PUSH1 0x0 DUP2 ISZERO ISZERO SWAP1 POP SWAP2 SWAP1 POP JUMP JUMPDEST PUSH2 0xF57 DUP2 PUSH2 0xF42 JUMP JUMPDEST DUP3 MSTORE POP POP JUMP JUMPDEST PUSH1 0x0 PUSH1 0xC0 DUP3 ADD SWAP1 POP PUSH2 0xF72 PUSH1 0x0 DUP4 ADD DUP10 PUSH2 0xE73 JUMP JUMPDEST DUP2 DUP2 SUB PUSH1 0x20 DUP4 ADD MSTORE PUSH2 0xF84 DUP2 DUP9 PUSH2 0xEC8 JUMP JUMPDEST SWAP1 POP PUSH2 0xF93 PUSH1 0x40 DUP4 ADD DUP8 PUSH2 0xE73 JUMP JUMPDEST PUSH2 0xFA0 PUSH1 0x60 DUP4 ADD DUP7 PUSH2 0xE73 JUMP JUMPDEST PUSH2 0xFAD PUSH1 0x80 DUP4 ADD DUP6 PUSH2 0xF33 JUMP JUMPDEST PUSH2 0xFBA PUSH1 0xA0 DUP4 ADD DUP5 PUSH2 0xF4E JUMP JUMPDEST SWAP8 SWAP7 POP POP POP POP POP POP POP JUMP JUMPDEST PUSH1 0x0 DUP1 PUSH1 0x40 DUP4 DUP6 SUB SLT ISZERO PUSH2 0xFDC JUMPI PUSH2 0xFDB PUSH2 0xC51 JUMP JUMPDEST JUMPDEST PUSH1 0x0 PUSH2 0xFEA DUP6 DUP3 DUP7 ADD PUSH2 0xDC2 JUMP JUMPDEST SWAP3 POP POP PUSH1 0x20 PUSH2 0xFFB DUP6 DUP3 DUP7 ADD PUSH2 0xDC2 JUMP JUMPDEST SWAP2 POP POP SWAP3 POP SWAP3 SWAP1 POP JUMP JUMPDEST PUSH1 0x0 PUSH1 0xC0 DUP3 ADD SWAP1 POP PUSH2 0x101A PUSH1 0x0 DUP4 ADD DUP10 PUSH2 0xE73 JUMP JUMPDEST PUSH2 0x1027 PUSH1 0x20 DUP4 ADD DUP9 PUSH2 0xE73 JUMP JUMPDEST PUSH2 0x1034 PUSH1 0x40 DUP4 ADD DUP8 PUSH2 0xF33 JUMP JUMPDEST PUSH2 0x1041 PUSH1 0x60 DUP4 ADD DUP7 PUSH2 0xE73 JUMP JUMPDEST PUSH2 0x104E PUSH1 0x80 DUP4 ADD DUP6 PUSH2 0xE73 JUMP JUMPDEST PUSH2 0x105B PUSH1 0xA0 DUP4 ADD DUP5 PUSH2 0xF4E JUMP JUMPDEST SWAP8 SWAP7 POP POP POP POP POP POP POP JUMP JUMPDEST PUSH2 0x106F DUP2 PUSH2 0xDA1 JUMP JUMPDEST DUP3 MSTORE POP POP JUMP JUMPDEST PUSH1 0x0 DUP3 DUP3 MSTORE PUSH1 0x20 DUP3 ADD SWAP1 POP SWAP3 SWAP2 POP POP JUMP JUMPDEST PUSH1 0x0 PUSH2 0x1091 DUP3 PUSH2 0xE82 JUMP JUMPDEST PUSH2 0x109B DUP2 DUP6 PUSH2 0x1075 JUMP JUMPDEST SWAP4 POP PUSH2 0x10AB DUP2 DUP6 PUSH1 0x20 DUP7 ADD PUSH2 0xE9E JUMP JUMPDEST PUSH2 0x10B4 DUP2 PUSH2 0xC65 JUMP JUMPDEST DUP5 ADD SWAP2 POP POP SWAP3 SWAP2 POP POP JUMP JUMPDEST PUSH2 0x10C8 DUP2 PUSH2 0xF21 JUMP JUMPDEST DUP3 MSTORE POP POP JUMP JUMPDEST PUSH2 0x10D7 DUP2 PUSH2 0xF42 JUMP JUMPDEST DUP3 MSTORE POP POP JUMP JUMPDEST PUSH1 0x0 PUSH1 0xC0 DUP4 ADD PUSH1 0x0 DUP4 ADD MLOAD PUSH2 0x10F5 PUSH1 0x0 DUP7 ADD DUP3 PUSH2 0x1066 JUMP JUMPDEST POP PUSH1 0x20 DUP4 ADD MLOAD DUP5 DUP3 SUB PUSH1 0x20 DUP7 ADD MSTORE PUSH2 0x110D DUP3 DUP3 PUSH2 0x1086 JUMP JUMPDEST SWAP2 POP POP PUSH1 0x40 DUP4 ADD MLOAD PUSH2 0x1122 PUSH1 0x40 DUP7 ADD DUP3 PUSH2 0x1066 JUMP JUMPDEST POP PUSH1 0x60 DUP4 ADD MLOAD PUSH2 0x1135 PUSH1 0x60 DUP7 ADD DUP3 PUSH2 0x1066 JUMP JUMPDEST POP PUSH1 0x80 DUP4 ADD MLOAD PUSH2 0x1148 PUSH1 0x80 DUP7 ADD DUP3 PUSH2 0x10BF JUMP JUMPDEST POP PUSH1 0xA0 DUP4 ADD MLOAD PUSH2 0x115B PUSH1 0xA0 DUP7 ADD DUP3 PUSH2 0x10CE JUMP JUMPDEST POP DUP1 SWAP2 POP POP SWAP3 SWAP2 POP POP JUMP JUMPDEST PUSH1 0x0 PUSH1 0x20 DUP3 ADD SWAP1 POP DUP2 DUP2 SUB PUSH1 0x0 DUP4 ADD MSTORE PUSH2 0x1180 DUP2 DUP5 PUSH2 0x10DD JUMP JUMPDEST SWAP1 POP SWAP3 SWAP2 POP POP JUMP JUMPDEST PUSH2 0x1191 DUP2 PUSH2 0xF21 JUMP JUMPDEST DUP2 EQ PUSH2 0x119C JUMPI PUSH1 0x0 DUP1 REVERT JUMPDEST POP JUMP JUMPDEST PUSH1 0x0 DUP2 CALLDATALOAD SWAP1 POP PUSH2 0x11AE DUP2 PUSH2 0x1188 JUMP JUMPDEST SWAP3 SWAP2 POP POP JUMP JUMPDEST PUSH1 0x0 PUSH1 0x20 DUP3 DUP5 SUB SLT ISZERO PUSH2 0x11CA JUMPI PUSH2 0x11C9 PUSH2 0xC51 JUMP JUMPDEST JUMPDEST PUSH1 0x0 PUSH2 0x11D8 DUP5 DUP3 DUP6 ADD PUSH2 0x119F JUMP JUMPDEST SWAP2 POP POP SWAP3 SWAP2 POP POP JUMP JUMPDEST PUSH1 0x0 PUSH1 0x20 DUP3 ADD SWAP1 POP PUSH2 0x11F6 PUSH1 0x0 DUP4 ADD DUP5 PUSH2 0xE73 JUMP JUMPDEST SWAP3 SWAP2 POP POP JUMP JUMPDEST PUSH1 0xC0 DUP3 ADD PUSH1 0x0 DUP3 ADD MLOAD PUSH2 0x1212 PUSH1 0x0 DUP6 ADD DUP3 PUSH2 0x1066 JUMP JUMPDEST POP PUSH1 0x20 DUP3 ADD MLOAD PUSH2 0x1225 PUSH1 0x20 DUP6 ADD DUP3 PUSH2 0x1066 JUMP JUMPDEST POP PUSH1 0x40 DUP3 ADD MLOAD PUSH2 0x1238 PUSH1 0x40 DUP6 ADD DUP3 PUSH2 0x10BF JUMP JUMPDEST POP PUSH1 0x60 DUP3 ADD MLOAD PUSH2 0x124B PUSH1 0x60 DUP6 ADD DUP3 PUSH2 0x1066 JUMP JUMPDEST POP PUSH1 0x80 DUP3 ADD MLOAD PUSH2 0x125E PUSH1 0x80 DUP6 ADD DUP3 PUSH2 0x1066 JUMP JUMPDEST POP PUSH1 0xA0 DUP3 ADD MLOAD PUSH2 0x1271 PUSH1 0xA0 DUP6 ADD DUP3 PUSH2 0x10CE JUMP JUMPDEST POP POP POP POP JUMP JUMPDEST PUSH1 0x0 PUSH1 0xC0 DUP3 ADD SWAP1 POP PUSH2 0x128C PUSH1 0x0 DUP4 ADD DUP5 PUSH2 0x11FC JUMP JUMPDEST SWAP3 SWAP2 POP POP JUMP JUMPDEST PUSH32 0x5072696365206D7573742062652067726561746572207468616E203000000000 PUSH1 0x0 DUP3 ADD MSTORE POP JUMP JUMPDEST PUSH1 0x0 PUSH2 0x12C8 PUSH1 0x1C DUP4 PUSH2 0xE8D JUMP JUMPDEST SWAP2 POP PUSH2 0x12D3 DUP3 PUSH2 0x1292 JUMP JUMPDEST PUSH1 0x20 DUP3 ADD SWAP1 POP SWAP2 SWAP1 POP JUMP JUMPDEST PUSH1 0x0 PUSH1 0x20 DUP3 ADD SWAP1 POP DUP2 DUP2 SUB PUSH1 0x0 DUP4 ADD MSTORE PUSH2 0x12F7 DUP2 PUSH2 0x12BB JUMP JUMPDEST SWAP1 POP SWAP2 SWAP1 POP JUMP JUMPDEST PUSH32 0x5175616E74697479206D7573742062652067726561746572207468616E203000 PUSH1 0x0 DUP3 ADD MSTORE POP JUMP JUMPDEST PUSH1 0x0 PUSH2 0x1334 PUSH1 0x1F DUP4 PUSH2 0xE8D JUMP JUMPDEST SWAP2 POP PUSH2 0x133F DUP3 PUSH2 0x12FE JUMP JUMPDEST PUSH1 0x20 DUP3 ADD SWAP1 POP SWAP2 SWAP1 POP JUMP JUMPDEST PUSH1 0x0 PUSH1 0x20 DUP3 ADD SWAP1 POP DUP2 DUP2 SUB PUSH1 0x0 DUP4 ADD MSTORE PUSH2 0x1363 DUP2 PUSH2 0x1327 JUMP JUMPDEST SWAP1 POP SWAP2 SWAP1 POP JUMP JUMPDEST PUSH32 0x4E487B7100000000000000000000000000000000000000000000000000000000 PUSH1 0x0 MSTORE PUSH1 0x11 PUSH1 0x4 MSTORE PUSH1 0x24 PUSH1 0x0 REVERT JUMPDEST PUSH1 0x0 PUSH2 0x13A4 DUP3 PUSH2 0xDA1 JUMP JUMPDEST SWAP2 POP PUSH32 0xFFFFFFFFFFFFFFFFFFFFFFFFFFFFFFFFFFFFFFFFFFFFFFFFFFFFFFFFFFFFFFFF DUP3 SUB PUSH2 0x13D6 JUMPI PUSH2 0x13D5 PUSH2 0x136A JUMP JUMPDEST JUMPDEST PUSH1 0x1 DUP3 ADD SWAP1 POP SWAP2 SWAP1 POP JUMP JUMPDEST PUSH32 0x4E487B7100000000000000000000000000000000000000000000000000000000 PUSH1 0x0 MSTORE PUSH1 0x22 PUSH1 0x4 MSTORE PUSH1 0x24 PUSH1 0x0 REVERT JUMPDEST PUSH1 0x0 PUSH1 0x2 DUP3 DIV SWAP1 POP PUSH1 0x1 DUP3 AND DUP1 PUSH2 0x1428 JUMPI PUSH1 0x7F DUP3 AND SWAP2 POP JUMPDEST PUSH1 0x20 DUP3 LT DUP2 SUB PUSH2 0x143B JUMPI PUSH2 0x143A PUSH2 0x13E1 JUMP JUMPDEST JUMPDEST POP SWAP2 SWAP1 POP JUMP JUMPDEST PUSH1 0x0 DUP2 SWAP1 POP DUP2 PUSH1 0x0 MSTORE PUSH1 0x20 PUSH1 0x0 KECCAK256 SWAP1 POP SWAP2 SWAP1 POP JUMP JUMPDEST PUSH1 0x0 PUSH1 0x20 PUSH1 0x1F DUP4 ADD DIV SWAP1 POP SWAP2 SWAP1 POP JUMP JUMPDEST PUSH1 0x0 DUP3 DUP3 SHL SWAP1 POP SWAP3 SWAP2 POP POP JUMP JUMPDEST PUSH1 0x0 PUSH1 0x8 DUP4 MUL PUSH2 0x14A3 PUSH32 0xFFFFFFFFFFFFFFFFFFFFFFFFFFFFFFFFFFFFFFFFFFFFFFFFFFFFFFFFFFFFFFFF DUP3 PUSH2 0x1466 JUMP JUMPDEST PUSH2 0x14AD DUP7 DUP4 PUSH2 0x1466 JUMP JUMPDEST SWAP6 POP DUP1 NOT DUP5 AND SWAP4 POP DUP1 DUP7 AND DUP5 OR SWAP3 POP POP POP SWAP4 SWAP3 POP POP POP JUMP JUMPDEST PUSH1 0x0 DUP2 SWAP1 POP SWAP2 SWAP1 POP JUMP JUMPDEST PUSH1 0x0 PUSH2 0x14EA PUSH2 0x14E5 PUSH2 0x14E0 DUP5 PUSH2 0xDA1 JUMP JUMPDEST PUSH2 0x14C5 JUMP JUMPDEST PUSH2 0xDA1 JUMP JUMPDEST SWAP1 POP SWAP2 SWAP1 POP JUMP JUMPDEST PUSH1 0x0 DUP2 SWAP1 POP SWAP2 SWAP1 POP JUMP JUMPDEST PUSH2 0x1504 DUP4 PUSH2 0x14CF JUMP JUMPDEST PUSH2 0x1518 PUSH2 0x1510 DUP3 PUSH2 0x14F1 JUMP JUMPDEST DUP5 DUP5 SLOAD PUSH2 0x1473 JUMP JUMPDEST DUP3 SSTORE POP POP POP POP JUMP JUMPDEST PUSH1 0x0 SWAP1 JUMP JUMPDEST PUSH2 0x152D PUSH2 0x1520 JUMP JUMPDEST PUSH2 0x1538 DUP2 DUP5 DUP5 PUSH2 0x14FB JUMP JUMPDEST POP POP POP JUMP JUMPDEST JUMPDEST DUP2 DUP2 LT ISZERO PUSH2 0x155C JUMPI PUSH2 0x1551 PUSH1 0x0 DUP3 PUSH2 0x1525 JUMP JUMPDEST PUSH1 0x1 DUP2 ADD SWAP1 POP PUSH2 0x153E JUMP JUMPDEST POP POP JUMP JUMPDEST PUSH1 0x1F DUP3 GT ISZERO PUSH2 0x15A1 JUMPI PUSH2 0x1572 DUP2 PUSH2 0x1441 JUMP JUMPDEST PUSH2 0x157B DUP5 PUSH2 0x1456 JUMP JUMPDEST DUP2 ADD PUSH1 0x20 DUP6 LT ISZERO PUSH2 0x158A JUMPI DUP2 SWAP1 POP JUMPDEST PUSH2 0x159E PUSH2 0x1596 DUP6 PUSH2 0x1456 JUMP JUMPDEST DUP4 ADD DUP3 PUSH2 0x153D JUMP JUMPDEST POP POP JUMPDEST POP POP POP JUMP JUMPDEST PUSH1 0x0 DUP3 DUP3 SHR SWAP1 POP SWAP3 SWAP2 POP POP JUMP JUMPDEST PUSH1 0x0 PUSH2 0x15C4 PUSH1 0x0 NOT DUP5 PUSH1 0x8 MUL PUSH2 0x15A6 JUMP JUMPDEST NOT DUP1 DUP4 AND SWAP2 POP POP SWAP3 SWAP2 POP POP JUMP JUMPDEST PUSH1 0x0 PUSH2 0x15DD DUP4 DUP4 PUSH2 0x15B3 JUMP JUMPDEST SWAP2 POP DUP3 PUSH1 0x2 MUL DUP3 OR SWAP1 POP SWAP3 SWAP2 POP POP JUMP JUMPDEST PUSH2 0x15F6 DUP3 PUSH2 0xE82 JUMP JUMPDEST PUSH8 0xFFFFFFFFFFFFFFFF DUP2 GT ISZERO PUSH2 0x160F JUMPI PUSH2 0x160E PUSH2 0xC76 JUMP JUMPDEST JUMPDEST PUSH2 0x1619 DUP3 SLOAD PUSH2 0x1410 JUMP JUMPDEST PUSH2 0x1624 DUP3 DUP3 DUP6 PUSH2 0x1560 JUMP JUMPDEST PUSH1 0x0 PUSH1 0x20 SWAP1 POP PUSH1 0x1F DUP4 GT PUSH1 0x1 DUP2 EQ PUSH2 0x1657 JUMPI PUSH1 0x0 DUP5 ISZERO PUSH2 0x1645 JUMPI DUP3 DUP8 ADD MLOAD SWAP1 POP JUMPDEST PUSH2 0x164F DUP6 DUP3 PUSH2 0x15D1 JUMP JUMPDEST DUP7 SSTORE POP PUSH2 0x16B7 JUMP JUMPDEST PUSH1 0x1F NOT DUP5 AND PUSH2 0x1665 DUP7 PUSH2 0x1441 JUMP JUMPDEST PUSH1 0x0 JUMPDEST DUP3 DUP2 LT ISZERO PUSH2 0x168D JUMPI DUP5 DUP10 ADD MLOAD DUP3 SSTORE PUSH1 0x1 DUP3 ADD SWAP2 POP PUSH1 0x20 DUP6 ADD SWAP5 POP PUSH1 0x20 DUP2 ADD SWAP1 POP PUSH2 0x1668 JUMP JUMPDEST DUP7 DUP4 LT ISZERO PUSH2 0x16AA JUMPI DUP5 DUP10 ADD MLOAD PUSH2 0x16A6 PUSH1 0x1F DUP10 AND DUP3 PUSH2 0x15B3 JUMP JUMPDEST DUP4 SSTORE POP JUMPDEST PUSH1 0x1 PUSH1 0x2 DUP9 MUL ADD DUP9 SSTORE POP POP POP JUMPDEST POP POP POP POP POP POP JUMP JUMPDEST PUSH1 0x0 PUSH1 0x60 DUP3 ADD SWAP1 POP DUP2 DUP2 SUB PUSH1 0x0 DUP4 ADD MSTORE PUSH2 0x16D9 DUP2 DUP7 PUSH2 0xEC8 JUMP JUMPDEST SWAP1 POP PUSH2 0x16E8 PUSH1 0x20 DUP4 ADD DUP6 PUSH2 0xE73 JUMP JUMPDEST PUSH2 0x16F5 PUSH1 0x40 DUP4 ADD DUP5 PUSH2 0xF33 JUMP JUMPDEST SWAP5 SWAP4 POP POP POP POP JUMP JUMPDEST PUSH32 0x50726F64756374206973206E6F74206163746976650000000000000000000000 PUSH1 0x0 DUP3 ADD MSTORE POP JUMP JUMPDEST PUSH1 0x0 PUSH2 0x1733 PUSH1 0x15 DUP4 PUSH2 0xE8D JUMP JUMPDEST SWAP2 POP PUSH2 0x173E DUP3 PUSH2 0x16FD JUMP JUMPDEST PUSH1 0x20 DUP3 ADD SWAP1 POP SWAP2 SWAP1 POP JUMP JUMPDEST PUSH1 0x0 PUSH1 0x20 DUP3 ADD SWAP1 POP DUP2 DUP2 SUB PUSH1 0x0 DUP4 ADD MSTORE PUSH2 0x1762 DUP2 PUSH2 0x1726 JUMP JUMPDEST SWAP1 POP SWAP2 SWAP1 POP JUMP JUMPDEST PUSH32 0x496E73756666696369656E742070726F64756374207175616E74697479000000 PUSH1 0x0 DUP3 ADD MSTORE POP JUMP JUMPDEST PUSH1 0x0 PUSH2 0x179F PUSH1 0x1D DUP4 PUSH2 0xE8D JUMP JUMPDEST SWAP2 POP PUSH2 0x17AA DUP3 PUSH2 0x1769 JUMP JUMPDEST PUSH1 0x20 DUP3 ADD SWAP1 POP SWAP2 SWAP1 POP JUMP JUMPDEST PUSH1 0x0 PUSH1 0x20 DUP3 ADD SWAP1 POP DUP2 DUP2 SUB PUSH1 0x0 DUP4 ADD MSTORE PUSH2 0x17CE DUP2 PUSH2 0x1792 JUMP JUMPDEST SWAP1 POP SWAP2 SWAP1 POP JUMP JUMPDEST PUSH1 0x0 PUSH2 0x17E0 DUP3 PUSH2 0xDA1 JUMP JUMPDEST SWAP2 POP PUSH2 0x17EB DUP4 PUSH2 0xDA1 JUMP JUMPDEST SWAP3 POP DUP3 DUP3 MUL PUSH2 0x17F9 DUP2 PUSH2 0xDA1 JUMP JUMPDEST SWAP2 POP DUP3 DUP3 DIV DUP5 EQ DUP4 ISZERO OR PUSH2 0x1810 JUMPI PUSH2 0x180F PUSH2 0x136A JUMP JUMPDEST JUMPDEST POP SWAP3 SWAP2 POP POP JUMP JUMPDEST PUSH32 0x496E73756666696369656E74207061796D656E74000000000000000000000000 PUSH1 0x0 DUP3 ADD MSTORE POP JUMP JUMPDEST PUSH1 0x0 PUSH2 0x184D PUSH1 0x14 DUP4 PUSH2 0xE8D JUMP JUMPDEST SWAP2 POP PUSH2 0x1858 DUP3 PUSH2 0x1817 JUMP JUMPDEST PUSH1 0x20 DUP3 ADD SWAP1 POP SWAP2 SWAP1 POP JUMP JUMPDEST PUSH1 0x0 PUSH1 0x20 DUP3 ADD SWAP1 POP DUP2 DUP2 SUB PUSH1 0x0 DUP4 ADD MSTORE PUSH2 0x187C DUP2 PUSH2 0x1840 JUMP JUMPDEST SWAP1 POP SWAP2 SWAP1 POP JUMP JUMPDEST PUSH1 0x0 PUSH2 0x188E DUP3 PUSH2 0xDA1 JUMP JUMPDEST SWAP2 POP PUSH2 0x1899 DUP4 PUSH2 0xDA1 JUMP JUMPDEST SWAP3 POP DUP3 DUP3 SUB SWAP1 POP DUP2 DUP2 GT ISZERO PUSH2 0x18B1 JUMPI PUSH2 0x18B0 PUSH2 0x136A JUMP JUMPDEST JUMPDEST SWAP3 SWAP2 POP POP JUMP JUMPDEST PUSH32 0x4E487B7100000000000000000000000000000000000000000000000000000000 PUSH1 0x0 MSTORE PUSH1 0x12 PUSH1 0x4 MSTORE PUSH1 0x24 PUSH1 0x0 REVERT JUMPDEST PUSH1 0x0 PUSH2 0x18F1 DUP3 PUSH2 0xDA1 JUMP JUMPDEST SWAP2 POP PUSH2 0x18FC DUP4 PUSH2 0xDA1 JUMP JUMPDEST SWAP3 POP DUP3 PUSH2 0x190C JUMPI PUSH2 0x190B PUSH2 0x18B7 JUMP JUMPDEST JUMPDEST DUP3 DUP3 DIV SWAP1 POP SWAP3 SWAP2 POP POP JUMP JUMPDEST PUSH1 0x0 PUSH2 0x1922 DUP3 PUSH2 0xDA1 JUMP JUMPDEST SWAP2 POP PUSH2 0x192D DUP4 PUSH2 0xDA1 JUMP JUMPDEST SWAP3 POP DUP3 DUP3 ADD SWAP1 POP DUP1 DUP3 GT ISZERO PUSH2 0x1945 JUMPI PUSH2 0x1944 PUSH2 0x136A JUMP JUMPDEST JUMPDEST SWAP3 SWAP2 POP POP JUMP JUMPDEST PUSH1 0x0 PUSH1 0x60 DUP3 ADD SWAP1 POP PUSH2 0x1960 PUSH1 0x0 DUP4 ADD DUP7 PUSH2 0xE73 JUMP JUMPDEST PUSH2 0x196D PUSH1 0x20 DUP4 ADD DUP6 PUSH2 0xF33 JUMP JUMPDEST PUSH2 0x197A PUSH1 0x40 DUP4 ADD DUP5 PUSH2 0xE73 JUMP JUMPDEST SWAP5 SWAP4 POP POP POP POP JUMP INVALID LOG2 PUSH5 0x6970667358 0x22 SLT KECCAK256 PUSH10 0x7A74F2880FDA4F10688E OR 0xC5 0x2F XOR 0xEF SMOD CREATE2 PUSH24 0x99C86CF973B073F8C035D43EE164736F6C63430008130033 "},"methodIdentifiers":{"getLoyaltyPoints(address)":"d04c9115","getOrder(uint256)":"d09ef241","getProduct(uint256)":"b9db15b4","listProduct(string,uint256,uint256)":"52292708","loyaltyPoints(address)":"d45e4259","orders(uint256)":"a85c38ef","placeOrder(uint256,uint256)":"843f61e2","products(uint256)":"7acc0b20"}}}}}