{
  "_format": "hh-sol-artifact-1",
  "contractName": "RetailChain",
  "sourceName": "contracts/RetailChain.sol",
  "abi": [
    {
      "anonymous": false,
      "inputs": [
        {
          "indexed": true,
          "internalType": "address",
          "name": "user",
          "type": "address"
        },
        {
          "indexed": false,
          "internalType": "uint256",
          "name": "points",
          "type": "uint256"
        }
      ],
      "name": "LoyaltyPointsEarned",
      "type": "event"
    },
    {
      "anonymous": false,
      "inputs": [
        {
          "indexed": true,
          "internalType": "uint256",
          "name": "id",
          "type": "uint256"
        },
        {
          "indexed": false,
          "internalType": "uint256",
          "name": "productId",
          "type": "uint256"
        },
        {
          "indexed": false,
          "internalType": "address",
          "name": "buyer",
          "type": "address"
        },
        {
          "indexed": false,
          "internalType": "uint256",
          "name": "quantity",
          "type": "uint256"
        }
      ],
      "name": "OrderPlaced",
      "type": "event"
    },
    {
      "anonymous": false,
      "inputs": [
        {
          "indexed": true,
          "internalType": "uint256",
          "name": "id",
          "type": "uint256"
        },
        {
          "indexed": false,
          "internalType": "string",
          "name": "name",
          "type": "string"
        },
        {
          "indexed": false,
          "internalType": "uint256",
          "name": "price",
          "type": "uint256"
        },
        {
          "indexed": false,
          "internalType": "address",
          "name": "seller",
          "type": "address"
        }
      ],
      "name": "ProductListed",
      "type": "event"
    },
    {
      "inputs": [
        {
          "internalType": "address",
          "name": "_user",
          "type": "address"
        }
      ],
      "name": "getLoyaltyPoints",
      "outputs": [
        {
          "internalType": "uint256",
          "name": "",
          "type": "uint256"
        }
      ],
      "stateMutability": "view",
      "type": "function"
    },
    {
      "inputs": [
        {
          "internalType": "uint256",
          "name": "_orderId",
          "type": "uint256"
        }
      ],
      "name": "getOrder",
      "outputs": [
        {
          "components": [
            {
              "internalType": "uint256",
              "name": "id",
              "type": "uint256"
            },
            {
              "internalType": "uint256",
              "name": "productId",
              "type": "uint256"
            },
            {
              "internalType": "address",
              "name": "buyer",
              "type": "address"
            },
            {
              "internalType": "uint256",
              "name": "quantity",
              "type": "uint256"
            },
            {
              "internalType": "uint256",
              "name": "totalPrice",
              "type": "uint256"
            },
            {
              "internalType": "bool",
              "name": "isCompleted",
              "type": "bool"
            }
          ],
          "internalType": "struct RetailChain.Order",
          "name": "",
          "type": "tuple"
        }
      ],
      "stateMutability": "view",
      "type": "function"
    },
    {
      "inputs": [
        {
          "internalType": "uint256",
          "name": "_productId",
          "type": "uint256"
        }
      ],
      "name": "getProduct",
      "outputs": [
        {
          "components": [
            {
              "internalType": "uint256",
              "name": "id",
              "type": "uint256"
            },
            {
              "internalType": "string",
              "name": "name",
              "type": "string"
            },
            {
              "internalType": "uint256",
              "name": "price",
              "type": "uint256"
            },
            {
              "internalType": "uint256",
              "name": "quantity",
              "type": "uint256"
            },
            {
              "internalType": "address",
              "name": "seller",
              "type": "address"
            },
            {
              "internalType": "bool",
              "name": "isActive",
              "type": "bool"
            }
          ],
          "internalType": "struct RetailChain.Product",
          "name": "",
          "type": "tuple"
        }
      ],
      "stateMutability": "view",
      "type": "function"
    },
    {
      "inputs": [
        {
          "internalType": "string",
          "name": "_name",
          "type": "string"
        },
        {
          "internalType": "uint256",
          "name": "_price",
          "type": "uint256"
        },
        {
          "internalType": "uint256",
          "name": "_quantity",
          "type": "uint256"
        }
      ],
      "name": "listProduct",
      "outputs": [],
      "stateMutability": "nonpayable",
      "type": "function"
    },
    {
      "inputs": [
        {
          "internalType": "address",
          "name": "",
          "type": "address"
        }
      ],
      "name": "loyaltyPoints",
      "outputs": [
        {
          "internalType": "uint256",
          "name": "",
          "type": "uint256"
        }
      ],
      "stateMutability": "view",
      "type": "function"
    },
    {
      "inputs": [
        {
          "internalType": "uint256",
          "name": "",
          "type": "uint256"
        }
      ],
      "name": "orders",
      "outputs": [
        {
          "internalType": "uint256",
          "name": "id",
          "type": "uint256"
        },
        {
          "internalType": "uint256",
          "name": "productId",
          "type": "uint256"
        },
        {
          "internalType": "address",
          "name": "buyer",
          "type": "address"
        },
        {
          "internalType": "uint256",
          "name": "quantity",
          "type": "uint256"
        },
        {
          "internalType": "uint256",
          "name": "totalPrice",
          "type": "uint256"
        },
        {
          "internalType": "bool",
          "name": "isCompleted",
          "type": "bool"
        }
      ],
      "stateMutability": "view",
      "type": "function"
    },
    {
      "inputs": [
        {
          "internalType": "uint256",
          "name": "_productId",
          "type": "uint256"
        },
        {
          "internalType": "uint256",
          "name": "_quantity",
          "type": "uint256"
        }
      ],
      "name": "placeOrder",
      "outputs": [],
      "stateMutability": "payable",
      "type": "function"
    },
    {
      "inputs": [
        {
          "internalType": "uint256",
          "name": "",
          "type": "uint256"
        }
      ],
      "name": "products",
      "outputs": [
        {
          "internalType": "uint256",
          "name": "id",
          "type": "uint256"
        },
        {
          "internalType": "string",
          "name": "name",
          "type": "string"
        },
        {
          "internalType": "uint256",
          "name": "price",
          "type": "uint256"
        },
        {
          "internalType": "uint256",
          "name": "quantity",
          "type": "uint256"
        },
        {
          "internalType": "address",
          "name": "seller",
          "type": "address"
        },
        {
          "internalType": "bool",
          "name": "isActive",
          "type": "bool"
        }
      ],
      "stateMutability": "view",
      "type": "function"
    }
  ],
  "bytecode": "0x608060405234801561001057600080fd5b506119b8806100206000396000f3fe60806040526004361061007b5760003560e01c8063b9db15b41161004e578063b9db15b414610149578063d04c911514610186578063d09ef241146101c3578063d45e4259146102005761007b565b806352292708146100805780637acc0b20146100a9578063843f61e2146100eb578063a85c38ef14610107575b600080fd5b34801561008c57600080fd5b506100a760048036038101906100a29190610dd7565b61023d565b005b3480156100b557600080fd5b506100d060048036038101906100cb9190610e46565b610418565b6040516100e296959493929190610f5d565b60405180910390f35b61010560048036038101906101009190610fc5565b610509565b005b34801561011357600080fd5b5061012e60048036038101906101299190610e46565b6108ce565b60405161014096959493929190611005565b60405180910390f35b34801561015557600080fd5b50610170600480360381019061016b9190610e46565b610937565b60405161017d9190611166565b60405180910390f35b34801561019257600080fd5b506101ad60048036038101906101a891906111b4565b610a84565b6040516101ba91906111e1565b60405180910390f35b3480156101cf57600080fd5b506101ea60048036038101906101e59190610e46565b610acd565b6040516101f79190611277565b60405180910390f35b34801561020c57600080fd5b50610227600480360381019061022291906111b4565b610b93565b60405161023491906111e1565b60405180910390f35b60008211610280576040517f08c379a0000000000000000000000000000000000000000000000000000000008152600401610277906112de565b60405180910390fd5b600081116102c3576040517f08c379a00000000000000000000000000000000000000000000000000000000081526004016102ba9061134a565b60405180910390fd5b600360008154809291906102d690611399565b91905055506040518060c0016040528060035481526020018481526020018381526020018281526020013373ffffffffffffffffffffffffffffffffffffffff16815260200160011515815250600080600354815260200190815260200160002060008201518160000155602082015181600101908161035691906115ed565b50604082015181600201556060820151816003015560808201518160040160006101000a81548173ffffffffffffffffffffffffffffffffffffffff021916908373ffffffffffffffffffffffffffffffffffffffff16021790555060a08201518160040160146101000a81548160ff0219169083151502179055509050506003547f12f74df6387ef2d51265f7b8c12c28c83ba3a6a78ad217f3846ec9c2b1fad92f84843360405161040b939291906116bf565b60405180910390a2505050565b600060205280600052604060002060009150905080600001549080600101805461044190611410565b80601f016020809104026020016040519081016040528092919081815260200182805461046d90611410565b80156104ba5780601f1061048f576101008083540402835291602001916104ba565b820191906000526020600020905b81548152906001019060200180831161049d57829003601f168201915b5050505050908060020154908060030154908060040160009054906101000a900473ffffffffffffffffffffffffffffffffffffffff16908060040160149054906101000a900460ff16905086565b600080600084815260200190815260200160002090508060040160149054906101000a900460ff16610570576040517f08c379a000000000000000000000000000000000000000000000000000000000815260040161056790611749565b60405180910390fd5b80600301548211156105b7576040517f08c379a00000000000000000000000000000000000000000000000000000000081526004016105ae906117b5565b60405180910390fd5b8181600201546105c791906117d5565b341015610609576040517f08c379a000000000000000000000000000000000000000000000000000000000815260040161060090611863565b60405180910390fd5b6004600081548092919061061c90611399565b91905055506040518060c0016040528060045481526020018481526020013373ffffffffffffffffffffffffffffffffffffffff16815260200183815260200183836002015461066c91906117d5565b815260200160001515815250600160006004548152602001908152602001600020600082015181600001556020820151816001015560408201518160020160006101000a81548173ffffffffffffffffffffffffffffffffffffffff021916908373ffffffffffffffffffffffffffffffffffffffff160217905550606082015181600301556080820151816004015560a08201518160050160006101000a81548160ff021916908315150217905550905050818160030160008282546107339190611883565b9250508190555060008160030154036107645760008160040160146101000a81548160ff0219169083151502179055505b600066038d7ea4c680003461077991906118e6565b905080600260003373ffffffffffffffffffffffffffffffffffffffff1673ffffffffffffffffffffffffffffffffffffffff16815260200190815260200160002060008282546107ca9190611917565b925050819055506004547ff272b72b23241ac4dea5dac19b1157309d925f5daa5577f2795bdaaf2af7d0c58533866040516108079392919061194b565b60405180910390a23373ffffffffffffffffffffffffffffffffffffffff167f175753914ef8c601477ea9da8b478482e8f41ba7c52ad0d1ae19da5e207fa00b8260405161085591906111e1565b60405180910390a28160040160009054906101000a900473ffffffffffffffffffffffffffffffffffffffff1673ffffffffffffffffffffffffffffffffffffffff166108fc349081150290604051600060405180830381858888f193505050501580156108c7573d6000803e3d6000fd5b5050505050565b60016020528060005260406000206000915090508060000154908060010154908060020160009054906101000a900473ffffffffffffffffffffffffffffffffffffffff16908060030154908060040154908060050160009054906101000a900460ff16905086565b61093f610bab565b6000808381526020019081526020016000206040518060c00160405290816000820154815260200160018201805461097690611410565b80601f01602080910402602001604051908101604052809291908181526020018280546109a290611410565b80156109ef5780601f106109c4576101008083540402835291602001916109ef565b820191906000526020600020905b8154815290600101906020018083116109d257829003601f168201915b5050505050815260200160028201548152602001600382015481526020016004820160009054906101000a900473ffffffffffffffffffffffffffffffffffffffff1673ffffffffffffffffffffffffffffffffffffffff1673ffffffffffffffffffffffffffffffffffffffff1681526020016004820160149054906101000a900460ff1615151515815250509050919050565b6000600260008373ffffffffffffffffffffffffffffffffffffffff1673ffffffffffffffffffffffffffffffffffffffff168152602001908152602001600020549050919050565b610ad5610bf9565b600160008381526020019081526020016000206040518060c001604052908160008201548152602001600182015481526020016002820160009054906101000a900473ffffffffffffffffffffffffffffffffffffffff1673ffffffffffffffffffffffffffffffffffffffff1673ffffffffffffffffffffffffffffffffffffffff16815260200160038201548152602001600482015481526020016005820160009054906101000a900460ff1615151515815250509050919050565b60026020528060005260406000206000915090505481565b6040518060c0016040528060008152602001606081526020016000815260200160008152602001600073ffffffffffffffffffffffffffffffffffffffff1681526020016000151581525090565b6040518060c001604052806000815260200160008152602001600073ffffffffffffffffffffffffffffffffffffffff16815260200160008152602001600081526020016000151581525090565b6000604051905090565b600080fd5b600080fd5b600080fd5b600080fd5b6000601f19601f8301169050919050565b7f4e487b7100000000000000000000000000000000000000000000000000000000600052604160045260246000fd5b610cae82610c65565b810181811067ffffffffffffffff82111715610ccd57610ccc610c76565b5b80604052505050565b6000610ce0610c47565b9050610cec8282610ca5565b919050565b600067ffffffffffffffff821115610d0c57610d0b610c76565b5b610d1582610c65565b9050602081019050919050565b82818337600083830152505050565b6000610d44610d3f84610cf1565b610cd6565b905082815260208101848484011115610d6057610d5f610c60565b5b610d6b848285610d22565b509392505050565b600082601f830112610d8857610d87610c5b565b5b8135610d98848260208601610d31565b91505092915050565b6000819050919050565b610db481610da1565b8114610dbf57600080fd5b50565b600081359050610dd181610dab565b92915050565b600080600060608486031215610df057610def610c51565b5b600084013567ffffffffffffffff811115610e0e57610e0d610c56565b5b610e1a86828701610d73565b9350506020610e2b86828701610dc2565b9250506040610e3c86828701610dc2565b9150509250925092565b600060208284031215610e5c57610e5b610c51565b5b6000610e6a84828501610dc2565b91505092915050565b610e7c81610da1565b82525050565b600081519050919050565b600082825260208201905092915050565b60005b83811015610ebc578082015181840152602081019050610ea1565b60008484015250505050565b6000610ed382610e82565b610edd8185610e8d565b9350610eed818560208601610e9e565b610ef681610c65565b840191505092915050565b600073ffffffffffffffffffffffffffffffffffffffff82169050919050565b6000610f2c82610f01565b9050919050565b610f3c81610f21565b82525050565b60008115159050919050565b610f5781610f42565b82525050565b600060c082019050610f726000830189610e73565b8181036020830152610f848188610ec8565b9050610f936040830187610e73565b610fa06060830186610e73565b610fad6080830185610f33565b610fba60a0830184610f4e565b979650505050505050565b60008060408385031215610fdc57610fdb610c51565b5b6000610fea85828601610dc2565b9250506020610ffb85828601610dc2565b9150509250929050565b600060c08201905061101a6000830189610e73565b6110276020830188610e73565b6110346040830187610f33565b6110416060830186610e73565b61104e6080830185610e73565b61105b60a0830184610f4e565b979650505050505050565b61106f81610da1565b82525050565b600082825260208201905092915050565b600061109182610e82565b61109b8185611075565b93506110ab818560208601610e9e565b6110b481610c65565b840191505092915050565b6110c881610f21565b82525050565b6110d781610f42565b82525050565b600060c0830160008301516110f56000860182611066565b506020830151848203602086015261110d8282611086565b91505060408301516111226040860182611066565b5060608301516111356060860182611066565b50608083015161114860808601826110bf565b5060a083015161115b60a08601826110ce565b508091505092915050565b6000602082019050818103600083015261118081846110dd565b905092915050565b61119181610f21565b811461119c57600080fd5b50565b6000813590506111ae81611188565b92915050565b6000602082840312156111ca576111c9610c51565b5b60006111d88482850161119f565b91505092915050565b60006020820190506111f66000830184610e73565b92915050565b60c0820160008201516112126000850182611066565b5060208201516112256020850182611066565b50604082015161123860408501826110bf565b50606082015161124b6060850182611066565b50608082015161125e6080850182611066565b5060a082015161127160a08501826110ce565b50505050565b600060c08201905061128c60008301846111fc565b92915050565b7f5072696365206d7573742062652067726561746572207468616e203000000000600082015250565b60006112c8601c83610e8d565b91506112d382611292565b602082019050919050565b600060208201905081810360008301526112f7816112bb565b9050919050565b7f5175616e74697479206d7573742062652067726561746572207468616e203000600082015250565b6000611334601f83610e8d565b915061133f826112fe565b602082019050919050565b6000602082019050818103600083015261136381611327565b9050919050565b7f4e487b7100000000000000000000000000000000000000000000000000000000600052601160045260246000fd5b60006113a482610da1565b91507fffffffffffffffffffffffffffffffffffffffffffffffffffffffffffffffff82036113d6576113d561136a565b5b600182019050919050565b7f4e487b7100000000000000000000000000000000000000000000000000000000600052602260045260246000fd5b6000600282049050600182168061142857607f821691505b60208210810361143b5761143a6113e1565b5b50919050565b60008190508160005260206000209050919050565b60006020601f8301049050919050565b600082821b905092915050565b6000600883026114a37fffffffffffffffffffffffffffffffffffffffffffffffffffffffffffffffff82611466565b6114ad8683611466565b95508019841693508086168417925050509392505050565b6000819050919050565b60006114ea6114e56114e084610da1565b6114c5565b610da1565b9050919050565b6000819050919050565b611504836114cf565b611518611510826114f1565b848454611473565b825550505050565b600090565b61152d611520565b6115388184846114fb565b505050565b5b8181101561155c57611551600082611525565b60018101905061153e565b5050565b601f8211156115a15761157281611441565b61157b84611456565b8101602085101561158a578190505b61159e61159685611456565b83018261153d565b50505b505050565b600082821c905092915050565b60006115c4600019846008026115a6565b1980831691505092915050565b60006115dd83836115b3565b9150826002028217905092915050565b6115f682610e82565b67ffffffffffffffff81111561160f5761160e610c76565b5b6116198254611410565b611624828285611560565b600060209050601f8311600181146116575760008415611645578287015190505b61164f85826115d1565b8655506116b7565b601f19841661166586611441565b60005b8281101561168d57848901518255600182019150602085019450602081019050611668565b868310156116aa57848901516116a6601f8916826115b3565b8355505b6001600288020188555050505b505050505050565b600060608201905081810360008301526116d98186610ec8565b90506116e86020830185610e73565b6116f56040830184610f33565b949350505050565b7f50726f64756374206973206e6f74206163746976650000000000000000000000600082015250565b6000611733601583610e8d565b915061173e826116fd565b602082019050919050565b6000602082019050818103600083015261176281611726565b9050919050565b7f496e73756666696369656e742070726f64756374207175616e74697479000000600082015250565b600061179f601d83610e8d565b91506117aa82611769565b602082019050919050565b600060208201905081810360008301526117ce81611792565b9050919050565b60006117e082610da1565b91506117eb83610da1565b92508282026117f981610da1565b915082820484148315176118105761180f61136a565b5b5092915050565b7f496e73756666696369656e74207061796d656e74000000000000000000000000600082015250565b600061184d601483610e8d565b915061185882611817565b602082019050919050565b6000602082019050818103600083015261187c81611840565b9050919050565b600061188e82610da1565b915061189983610da1565b92508282039050818111156118b1576118b061136a565b5b92915050565b7f4e487b7100000000000000000000000000000000000000000000000000000000600052601260045260246000fd5b60006118f182610da1565b91506118fc83610da1565b92508261190c5761190b6118b7565b5b828204905092915050565b600061192282610da1565b915061192d83610da1565b92508282019050808211156119455761194461136a565b5b92915050565b60006060820190506119606000830186610e73565b61196d6020830185610f33565b61197a6040830184610e73565b94935050505056fea2646970667358221220697a74f2880fda4f10688e17c52f18ef07f57799c86cf973b073f8c035d43ee164736f6c63430008130033",
  "linkReferences": {},
  "deployedLinkReferences": {}
}